{
  "_format": "hh-sol-artifact-1",
  "contractName": "GelatoTokenFaucet",
  "sourceName": "contracts/GelatoTokenFaucet.sol",
  "abi": [
    {
      "inputs": [
        {
          "internalType": "address",
          "name": "_token",
          "type": "address"
        }
      ],
      "name": "mint",
      "outputs": [],
      "stateMutability": "nonpayable",
      "type": "function"
    }
  ],
  "bytecode": "0x608060405234801561001057600080fd5b506102ba806100206000396000f3fe608060405234801561001057600080fd5b506004361061002b5760003560e01c80636a62784214610030575b600080fd5b6100566004803603602081101561004657600080fd5b50356001600160a01b0316610058565b005b336000908152602081905260409020546201517f194201116100c1576040805162461bcd60e51b815260206004820152601860248201527f4461696c7920616c6c6f77616e6365206465706c657465640000000000000000604482015290519081900360640190fd5b60008190506000826001600160a01b031663313ce5676040518163ffffffff1660e01b815260040160206040518083038186803b15801561010157600080fd5b505afa158015610115573d6000803e3d6000fd5b505050506040513d602081101561012b57600080fd5b5051604080516370a0823160e01b8152306004820152905160ff909216600a0a603202925082916001600160a01b038516916370a08231916024808301926020929190829003018186803b15801561018257600080fd5b505afa158015610196573d6000803e3d6000fd5b505050506040513d60208110156101ac57600080fd5b5051116101f5576040805162461bcd60e51b815260206004820152601260248201527111985d58d95d081a5cc819195c1b195d195960721b604482015290519081900360640190fd5b33600081815260208181526040808320429055805163a9059cbb60e01b8152600481019490945260248401859052516001600160a01b0386169363a9059cbb9360448083019493928390030190829087803b15801561025357600080fd5b505af1158015610267573d6000803e3d6000fd5b505050506040513d602081101561027d57600080fd5b505050505056fea2646970667358221220bcf716415e1bf0032e8197cb3ff9486d778da3cee1d59bbc76f8cd4de89f004264736f6c634300060a0033",
  "linkReferences": {},
  "deployedLinkReferences": {}
}