{
  "_format": "hh-sol-artifact-1",
  "contractName": "TestAction",
  "sourceName": "contracts/mocks/TestAction.sol",
  "abi": [
    {
      "inputs": [],
      "stateMutability": "nonpayable",
      "type": "constructor"
    },
    {
      "inputs": [
        {
          "internalType": "address",
          "name": "_token",
          "type": "address"
        },
        {
          "internalType": "address",
          "name": "_toApprove",
          "type": "address"
        },
        {
          "internalType": "uint256",
          "name": "_amount",
          "type": "uint256"
        }
      ],
      "name": "approveToken",
      "outputs": [
        {
          "internalType": "bool",
          "name": "",
          "type": "bool"
        }
      ],
      "stateMutability": "nonpayable",
      "type": "function"
    },
    {
      "inputs": [
        {
          "internalType": "address",
          "name": "_contract",
          "type": "address"
        },
        {
          "internalType": "bytes",
          "name": "_data",
          "type": "bytes"
        }
      ],
      "name": "makeDelegatecall",
      "outputs": [
        {
          "internalType": "bool",
          "name": "",
          "type": "bool"
        }
      ],
      "stateMutability": "nonpayable",
      "type": "function"
    }
  ],
  "bytecode": "0x608060405234801561001057600080fd5b506102b3806100206000396000f3fe608060405234801561001057600080fd5b50600436106100365760003560e01c8063da3e33971461003b578063e632e17214610085575b600080fd5b6100716004803603606081101561005157600080fd5b506001600160a01b0381358116916020810135909116906040013561013b565b604080519115158252519081900360200190f35b6100716004803603604081101561009b57600080fd5b6001600160a01b0382351691908101906040810160208201356401000000008111156100c657600080fd5b8201836020820111156100d857600080fd5b803590602001918460018302840111640100000000831117156100fa57600080fd5b91908080601f0160208091040260200160405190810160405280939291908181526020018383808284376000920191909152509295506101cd945050505050565b6040805163095ea7b360e01b81526001600160a01b03848116600483015260248201849052915160009286169163095ea7b391604480830192602092919082900301818787803b15801561018e57600080fd5b505af11580156101a2573d6000803e3d6000fd5b505050506040513d60208110156101b857600080fd5b50516101c357600080fd5b5060019392505050565b6000806060846001600160a01b0316846040518082805190602001908083835b6020831061020c5780518252601f1990920191602091820191016101ed565b6001836020036101000a038019825116818451168082178552505050505050905001915050600060405180830381855af49150503d806000811461026c576040519150601f19603f3d011682016040523d82523d6000602084013e610271565b606091505b5090969550505050505056fea2646970667358221220f64f0feaf06cd0dee91faa90b253fd1bee91c3d874f4d84fea0d5f98dd5aac2e64736f6c634300060a0033",
  "linkReferences": {},
  "deployedLinkReferences": {}
}