{
  "_format": "hh-sol-artifact-1",
  "contractName": "TokenConversion",
  "sourceName": "contracts/gelato_actions/TokenConversion.sol",
  "abi": [
    {
      "inputs": [
        {
          "internalType": "address",
          "name": "_weth",
          "type": "address"
        }
      ],
      "stateMutability": "nonpayable",
      "type": "constructor"
    },
    {
      "inputs": [
        {
          "internalType": "address",
          "name": "_token",
          "type": "address"
        },
        {
          "internalType": "address",
          "name": "_oracle",
          "type": "address"
        }
      ],
      "name": "addOracle",
      "outputs": [],
      "stateMutability": "nonpayable",
      "type": "function"
    },
    {
      "inputs": [
        {
          "internalType": "uint256",
          "name": "_amount",
          "type": "uint256"
        },
        {
          "internalType": "address",
          "name": "_inToken",
          "type": "address"
        },
        {
          "internalType": "address",
          "name": "_outToken",
          "type": "address"
        }
      ],
      "name": "convert",
      "outputs": [
        {
          "internalType": "uint256",
          "name": "",
          "type": "uint256"
        }
      ],
      "stateMutability": "view",
      "type": "function"
    },
    {
      "inputs": [
        {
          "internalType": "address",
          "name": "_token",
          "type": "address"
        }
      ],
      "name": "ethPrice",
      "outputs": [
        {
          "internalType": "uint256",
          "name": "",
          "type": "uint256"
        }
      ],
      "stateMutability": "view",
      "type": "function"
    },
    {
      "inputs": [
        {
          "internalType": "uint256",
          "name": "_amountIn",
          "type": "uint256"
        },
        {
          "internalType": "address",
          "name": "_inToken",
          "type": "address"
        },
        {
          "internalType": "address",
          "name": "_outToken",
          "type": "address"
        },
        {
          "internalType": "uint256",
          "name": "_slippageFactor",
          "type": "uint256"
        }
      ],
      "name": "minimumOut",
      "outputs": [
        {
          "internalType": "uint256",
          "name": "",
          "type": "uint256"
        }
      ],
      "stateMutability": "view",
      "type": "function"
    },
    {
      "inputs": [],
      "name": "owner",
      "outputs": [
        {
          "internalType": "address",
          "name": "",
          "type": "address"
        }
      ],
      "stateMutability": "view",
      "type": "function"
    },
    {
      "inputs": [],
      "name": "weth",
      "outputs": [
        {
          "internalType": "address",
          "name": "",
          "type": "address"
        }
      ],
      "stateMutability": "view",
      "type": "function"
    }
  ],
  "bytecode": "0x60c060405234801561001057600080fd5b506040516106b43803806106b48339818101604052602081101561003357600080fd5b505133606081811b60805282901b6001600160601b03191660a052906001600160a01b03166106306100846000398061016d52806102c95280610324525080610244528061039f52506106306000f3fe608060405234801561001057600080fd5b50600436106100625760003560e01c80633fc8cef3146100675780636018401b1461008b5780638da5cb5b146100c3578063b0e9473b146100cb578063b66102df14610107578063f0ca4adb1461013b575b600080fd5b61006f61016b565b604080516001600160a01b039092168252519081900360200190f35b6100b1600480360360208110156100a157600080fd5b50356001600160a01b031661018f565b60408051918252519081900360200190f35b61006f610242565b6100b1600480360360808110156100e157600080fd5b508035906001600160a01b03602082013581169160408101359091169060600135610266565b6100b16004803603606081101561011d57600080fd5b508035906001600160a01b03602082013581169160400135166102a8565b6101696004803603604081101561015157600080fd5b506001600160a01b0381358116916020013516610394565b005b7f000000000000000000000000000000000000000000000000000000000000000081565b600080600080600080600080886001600160a01b03166001600160a01b0316815260200190815260200160002060009054906101000a90046001600160a01b03166001600160a01b031663feaf968c6040518163ffffffff1660e01b815260040160a06040518083038186803b15801561020857600080fd5b505afa15801561021c573d6000803e3d6000fd5b505050506040513d60a081101561023257600080fd5b5060200151979650505050505050565b7f000000000000000000000000000000000000000000000000000000000000000081565b6000806102748686866102a8565b90506000610288828563ffffffff6103f716565b9050600061029c838363ffffffff61044216565b98975050505050505050565b6000670de0b6b3a7640000806001600160a01b038516158015906102fe57507f00000000000000000000000000000000000000000000000000000000000000006001600160a01b0316856001600160a01b031614155b1561030f5761030c8561018f565b91505b6001600160a01b0384161580159061035957507f00000000000000000000000000000000000000000000000000000000000000006001600160a01b0316846001600160a01b031614155b1561036a576103678461018f565b90505b61038a8161037e888563ffffffff61048416565b9063ffffffff6103f716565b9695505050505050565b336001600160a01b037f000000000000000000000000000000000000000000000000000000000000000016146103c957600080fd5b6001600160a01b03918216600090815260208190526040902080546001600160a01b03191691909216179055565b600061043983836040518060400160405280601a81526020017f536166654d6174683a206469766973696f6e206279207a65726f0000000000008152506104dd565b90505b92915050565b600061043983836040518060400160405280601e81526020017f536166654d6174683a207375627472616374696f6e206f766572666c6f77000081525061057f565b6000826104935750600061043c565b828202828482816104a057fe5b04146104395760405162461bcd60e51b81526004018080602001828103825260218152602001806105da6021913960400191505060405180910390fd5b600081836105695760405162461bcd60e51b81526004018080602001828103825283818151815260200191508051906020019080838360005b8381101561052e578181015183820152602001610516565b50505050905090810190601f16801561055b5780820380516001836020036101000a031916815260200191505b509250505060405180910390fd5b50600083858161057557fe5b0495945050505050565b600081848411156105d15760405162461bcd60e51b815260206004820181815283516024840152835190928392604490910191908501908083836000831561052e578181015183820152602001610516565b50505090039056fe536166654d6174683a206d756c7469706c69636174696f6e206f766572666c6f77a2646970667358221220a02095656fce24601bdf5ec52baf5336ab100cbf2dc79ce9a19b80e43605bcca64736f6c634300060a0033",
  "linkReferences": {},
  "deployedLinkReferences": {}
}