{
  "_format": "hh-sol-artifact-1",
  "contractName": "ActionStablecoinFee",
  "sourceName": "contracts/gelato_actions/ActionStablecoinFee.sol",
  "abi": [
    {
      "inputs": [
        {
          "internalType": "address",
          "name": "_gasProviderCollector",
          "type": "address"
        },
        {
          "internalType": "address",
          "name": "_tradePriceAgg",
          "type": "address"
        },
        {
          "internalType": "address",
          "name": "_token",
          "type": "address"
        },
        {
          "internalType": "uint256",
          "name": "_gasLimit",
          "type": "uint256"
        },
        {
          "internalType": "uint256",
          "name": "_gasPriceLimit",
          "type": "uint256"
        }
      ],
      "stateMutability": "nonpayable",
      "type": "constructor"
    },
    {
      "anonymous": false,
      "inputs": [
        {
          "indexed": false,
          "internalType": "address",
          "name": "origin",
          "type": "address"
        },
        {
          "indexed": false,
          "internalType": "address",
          "name": "sendToken",
          "type": "address"
        },
        {
          "indexed": false,
          "internalType": "uint256",
          "name": "sendAmount",
          "type": "uint256"
        },
        {
          "indexed": false,
          "internalType": "address",
          "name": "destination",
          "type": "address"
        }
      ],
      "name": "LogOneWay",
      "type": "event"
    },
    {
      "anonymous": false,
      "inputs": [
        {
          "indexed": false,
          "internalType": "address",
          "name": "origin",
          "type": "address"
        },
        {
          "indexed": false,
          "internalType": "address",
          "name": "sendToken",
          "type": "address"
        },
        {
          "indexed": false,
          "internalType": "uint256",
          "name": "sendAmount",
          "type": "uint256"
        },
        {
          "indexed": false,
          "internalType": "address",
          "name": "destination",
          "type": "address"
        },
        {
          "indexed": false,
          "internalType": "address",
          "name": "receiveToken",
          "type": "address"
        },
        {
          "indexed": false,
          "internalType": "uint256",
          "name": "receiveAmount",
          "type": "uint256"
        },
        {
          "indexed": false,
          "internalType": "address",
          "name": "receiver",
          "type": "address"
        }
      ],
      "name": "LogTwoWay",
      "type": "event"
    },
    {
      "inputs": [
        {
          "internalType": "address",
          "name": "_sender",
          "type": "address"
        }
      ],
      "name": "action",
      "outputs": [
        {
          "internalType": "uint256",
          "name": "",
          "type": "uint256"
        }
      ],
      "stateMutability": "nonpayable",
      "type": "function"
    },
    {
      "inputs": [],
      "name": "gasLimit",
      "outputs": [
        {
          "internalType": "uint256",
          "name": "",
          "type": "uint256"
        }
      ],
      "stateMutability": "view",
      "type": "function"
    },
    {
      "inputs": [],
      "name": "gasPrice",
      "outputs": [
        {
          "internalType": "uint256",
          "name": "",
          "type": "uint256"
        }
      ],
      "stateMutability": "view",
      "type": "function"
    },
    {
      "inputs": [],
      "name": "gasProviderCollector",
      "outputs": [
        {
          "internalType": "address",
          "name": "",
          "type": "address"
        }
      ],
      "stateMutability": "view",
      "type": "function"
    },
    {
      "inputs": [],
      "name": "priceOracle",
      "outputs": [
        {
          "internalType": "contract AggregatorV3Interface",
          "name": "",
          "type": "address"
        }
      ],
      "stateMutability": "view",
      "type": "function"
    },
    {
      "inputs": [
        {
          "internalType": "uint256",
          "name": "",
          "type": "uint256"
        },
        {
          "internalType": "address",
          "name": "",
          "type": "address"
        },
        {
          "internalType": "bytes",
          "name": "",
          "type": "bytes"
        },
        {
          "internalType": "enum DataFlow",
          "name": "",
          "type": "uint8"
        },
        {
          "internalType": "uint256",
          "name": "",
          "type": "uint256"
        },
        {
          "internalType": "uint256",
          "name": "",
          "type": "uint256"
        }
      ],
      "name": "termsOk",
      "outputs": [
        {
          "internalType": "string",
          "name": "",
          "type": "string"
        }
      ],
      "stateMutability": "view",
      "type": "function"
    },
    {
      "inputs": [],
      "name": "thisActionAddress",
      "outputs": [
        {
          "internalType": "address",
          "name": "",
          "type": "address"
        }
      ],
      "stateMutability": "view",
      "type": "function"
    },
    {
      "inputs": [],
      "name": "token",
      "outputs": [
        {
          "internalType": "contract IERC20",
          "name": "",
          "type": "address"
        }
      ],
      "stateMutability": "view",
      "type": "function"
    }
  ],
  "bytecode": "0x61014060405234801561001157600080fd5b506040516108f33803806108f3833981810160405260a081101561003457600080fd5b5080516020820151604083015160608085015160809586015130831b9096526001600160601b031994821b851660a05292811b841660c0521b90911660e052610100526101205260805160601c60a05160601c60c05160601c60e05160601c61010051610120516108056100ee600039806104925280610688525080610471528061064052508061054c528061066452508061021c52806103c352508061051852806105f852508061028252806105d452506108056000f3fe608060405234801561001057600080fd5b50600436106100885760003560e01c8063eb9e71261161005b578063eb9e7126146100f9578063f68016b714610202578063fc0c546a1461020a578063fe173b971461021257610088565b80632630c12f1461008d578063721b8e01146100b15780637b9b9348146100e957806390cec472146100f1575b600080fd5b61009561021a565b604080516001600160a01b039092168252519081900360200190f35b6100d7600480360360208110156100c757600080fd5b50356001600160a01b031661023e565b60408051918252519081900360200190f35b6100956105d2565b6100956105f6565b61018d600480360360c081101561010f57600080fd5b8135916001600160a01b036020820135169181019060608101604082013564010000000081111561013f57600080fd5b82018360208201111561015157600080fd5b8035906020019184600183028401116401000000008311171561017357600080fd5b919350915060ff813516906020810135906040013561061a565b6040805160208082528351818301528351919283929083019185019080838360005b838110156101c75781810151838201526020016101af565b50505050905090810190601f1680156101f45780820380516001836020036101000a031916815260200191505b509250505060405180910390f35b6100d761063e565b610095610662565b6100d7610686565b7f000000000000000000000000000000000000000000000000000000000000000081565b60006040518060400160405280601a81526020017f416374696f6e537461626c65636f696e4665652e616374696f6e000000000000815250306001600160a01b03167f00000000000000000000000000000000000000000000000000000000000000006001600160a01b03161415816040516020018082805190602001908083835b602083106102df5780518252601f1990920191602091820191016102c0565b6001836020036101000a03801982511681845116808217855250505050505090500180703a64656c656761746563616c6c4f6e6c7960781b815250601101915050604051602081830303815290604052906103b85760405162461bcd60e51b81526004018080602001828103825283818151815260200191508051906020019080838360005b8381101561037d578181015183820152602001610365565b50505050905090810190601f1680156103aa5780820380516001836020036101000a031916815260200191505b509250505060405180910390fd5b5060008060008060007f00000000000000000000000000000000000000000000000000000000000000006001600160a01b031663feaf968c6040518163ffffffff1660e01b815260040160a06040518083038186803b15801561041a57600080fd5b505afa15801561042e573d6000803e3d6000fd5b505050506040513d60a081101561044457600080fd5b508051602082015160408301516060840151608090940151929850909650945090925090508360006104bc7f00000000000000000000000000000000000000000000000000000000000000007f000000000000000000000000000000000000000000000000000000000000000063ffffffff6106aa16565b905060006104f8605a6104ec6305f5e1008160646104e0888a63ffffffff6106aa16565b9063ffffffff6106aa16565b9063ffffffff61070c16565b604080516323b872dd60e01b81526001600160a01b038e811660048301527f0000000000000000000000000000000000000000000000000000000000000000811660248301526044820184905291519293507f0000000000000000000000000000000000000000000000000000000000000000909116916323b872dd916064808201926020929091908290030181600087803b15801561059757600080fd5b505af11580156105ab573d6000803e3d6000fd5b505050506040513d60208110156105c157600080fd5b50909b9a5050505050505050505050565b7f000000000000000000000000000000000000000000000000000000000000000081565b7f000000000000000000000000000000000000000000000000000000000000000081565b6040805180820190915260028152614f4b60f01b6020820152979650505050505050565b7f000000000000000000000000000000000000000000000000000000000000000081565b7f000000000000000000000000000000000000000000000000000000000000000081565b7f000000000000000000000000000000000000000000000000000000000000000081565b6000826106b957506000610706565b828202828482816106c657fe5b04146107035760405162461bcd60e51b81526004018080602001828103825260218152602001806107af6021913960400191505060405180910390fd5b90505b92915050565b600061070383836040518060400160405280601a81526020017f536166654d6174683a206469766973696f6e206279207a65726f000000000000815250600081836107985760405162461bcd60e51b815260206004820181815283516024840152835190928392604490910191908501908083836000831561037d578181015183820152602001610365565b5060008385816107a457fe5b049594505050505056fe536166654d6174683a206d756c7469706c69636174696f6e206f766572666c6f77a2646970667358221220febc33b1dd1e04723fc2407b811334982f912ab7c1b321e07c26a434e734b55164736f6c634300060a0033",
  "linkReferences": {},
  "deployedLinkReferences": {}
}