{
  "_format": "hh-sol-artifact-1",
  "contractName": "GelatoUserProxy",
  "sourceName": "contracts/user_proxies/GelatoUserProxy.sol",
  "abi": [
    {
      "inputs": [
        {
          "internalType": "address",
          "name": "_user",
          "type": "address"
        },
        {
          "internalType": "address",
          "name": "_gelatoCore",
          "type": "address"
        }
      ],
      "stateMutability": "payable",
      "type": "constructor"
    },
    {
      "inputs": [
        {
          "components": [
            {
              "internalType": "uint256",
              "name": "id",
              "type": "uint256"
            },
            {
              "internalType": "address",
              "name": "userProxy",
              "type": "address"
            },
            {
              "components": [
                {
                  "internalType": "address",
                  "name": "addr",
                  "type": "address"
                },
                {
                  "internalType": "contract IGelatoProviderModule",
                  "name": "module",
                  "type": "address"
                }
              ],
              "internalType": "struct Provider",
              "name": "provider",
              "type": "tuple"
            },
            {
              "internalType": "uint256",
              "name": "index",
              "type": "uint256"
            },
            {
              "components": [
                {
                  "components": [
                    {
                      "internalType": "contract IGelatoCondition",
                      "name": "inst",
                      "type": "address"
                    },
                    {
                      "internalType": "bytes",
                      "name": "data",
                      "type": "bytes"
                    }
                  ],
                  "internalType": "struct Condition[]",
                  "name": "conditions",
                  "type": "tuple[]"
                },
                {
                  "components": [
                    {
                      "internalType": "address",
                      "name": "addr",
                      "type": "address"
                    },
                    {
                      "internalType": "bytes",
                      "name": "data",
                      "type": "bytes"
                    },
                    {
                      "internalType": "enum Operation",
                      "name": "operation",
                      "type": "uint8"
                    },
                    {
                      "internalType": "enum DataFlow",
                      "name": "dataFlow",
                      "type": "uint8"
                    },
                    {
                      "internalType": "uint256",
                      "name": "value",
                      "type": "uint256"
                    },
                    {
                      "internalType": "bool",
                      "name": "termsOkCheck",
                      "type": "bool"
                    }
                  ],
                  "internalType": "struct Action[]",
                  "name": "actions",
                  "type": "tuple[]"
                },
                {
                  "internalType": "uint256",
                  "name": "selfProviderGasLimit",
                  "type": "uint256"
                },
                {
                  "internalType": "uint256",
                  "name": "selfProviderGasPriceCeil",
                  "type": "uint256"
                }
              ],
              "internalType": "struct Task[]",
              "name": "tasks",
              "type": "tuple[]"
            },
            {
              "internalType": "uint256",
              "name": "expiryDate",
              "type": "uint256"
            },
            {
              "internalType": "uint256",
              "name": "cycleId",
              "type": "uint256"
            },
            {
              "internalType": "uint256",
              "name": "submissionsLeft",
              "type": "uint256"
            }
          ],
          "internalType": "struct TaskReceipt",
          "name": "_TR",
          "type": "tuple"
        }
      ],
      "name": "cancelTask",
      "outputs": [],
      "stateMutability": "nonpayable",
      "type": "function"
    },
    {
      "inputs": [
        {
          "components": [
            {
              "internalType": "address",
              "name": "addr",
              "type": "address"
            },
            {
              "internalType": "bytes",
              "name": "data",
              "type": "bytes"
            },
            {
              "internalType": "enum Operation",
              "name": "operation",
              "type": "uint8"
            },
            {
              "internalType": "enum DataFlow",
              "name": "dataFlow",
              "type": "uint8"
            },
            {
              "internalType": "uint256",
              "name": "value",
              "type": "uint256"
            },
            {
              "internalType": "bool",
              "name": "termsOkCheck",
              "type": "bool"
            }
          ],
          "internalType": "struct Action",
          "name": "_action",
          "type": "tuple"
        }
      ],
      "name": "execAction",
      "outputs": [],
      "stateMutability": "payable",
      "type": "function"
    },
    {
      "inputs": [
        {
          "components": [
            {
              "internalType": "address",
              "name": "addr",
              "type": "address"
            },
            {
              "internalType": "bytes",
              "name": "data",
              "type": "bytes"
            },
            {
              "internalType": "enum Operation",
              "name": "operation",
              "type": "uint8"
            },
            {
              "internalType": "enum DataFlow",
              "name": "dataFlow",
              "type": "uint8"
            },
            {
              "internalType": "uint256",
              "name": "value",
              "type": "uint256"
            },
            {
              "internalType": "bool",
              "name": "termsOkCheck",
              "type": "bool"
            }
          ],
          "internalType": "struct Action[]",
          "name": "_actions",
          "type": "tuple[]"
        },
        {
          "components": [
            {
              "internalType": "address",
              "name": "addr",
              "type": "address"
            },
            {
              "internalType": "contract IGelatoProviderModule",
              "name": "module",
              "type": "address"
            }
          ],
          "internalType": "struct Provider",
          "name": "_provider",
          "type": "tuple"
        },
        {
          "components": [
            {
              "components": [
                {
                  "internalType": "contract IGelatoCondition",
                  "name": "inst",
                  "type": "address"
                },
                {
                  "internalType": "bytes",
                  "name": "data",
                  "type": "bytes"
                }
              ],
              "internalType": "struct Condition[]",
              "name": "conditions",
              "type": "tuple[]"
            },
            {
              "components": [
                {
                  "internalType": "address",
                  "name": "addr",
                  "type": "address"
                },
                {
                  "internalType": "bytes",
                  "name": "data",
                  "type": "bytes"
                },
                {
                  "internalType": "enum Operation",
                  "name": "operation",
                  "type": "uint8"
                },
                {
                  "internalType": "enum DataFlow",
                  "name": "dataFlow",
                  "type": "uint8"
                },
                {
                  "internalType": "uint256",
                  "name": "value",
                  "type": "uint256"
                },
                {
                  "internalType": "bool",
                  "name": "termsOkCheck",
                  "type": "bool"
                }
              ],
              "internalType": "struct Action[]",
              "name": "actions",
              "type": "tuple[]"
            },
            {
              "internalType": "uint256",
              "name": "selfProviderGasLimit",
              "type": "uint256"
            },
            {
              "internalType": "uint256",
              "name": "selfProviderGasPriceCeil",
              "type": "uint256"
            }
          ],
          "internalType": "struct Task[]",
          "name": "_tasks",
          "type": "tuple[]"
        },
        {
          "internalType": "uint256",
          "name": "_expiryDate",
          "type": "uint256"
        },
        {
          "internalType": "uint256",
          "name": "_cycles",
          "type": "uint256"
        }
      ],
      "name": "execActionsAndSubmitTaskCycle",
      "outputs": [],
      "stateMutability": "payable",
      "type": "function"
    },
    {
      "inputs": [],
      "name": "factory",
      "outputs": [
        {
          "internalType": "address",
          "name": "",
          "type": "address"
        }
      ],
      "stateMutability": "view",
      "type": "function"
    },
    {
      "inputs": [],
      "name": "gelatoCore",
      "outputs": [
        {
          "internalType": "address",
          "name": "",
          "type": "address"
        }
      ],
      "stateMutability": "view",
      "type": "function"
    },
    {
      "inputs": [
        {
          "components": [
            {
              "internalType": "uint256",
              "name": "id",
              "type": "uint256"
            },
            {
              "internalType": "address",
              "name": "userProxy",
              "type": "address"
            },
            {
              "components": [
                {
                  "internalType": "address",
                  "name": "addr",
                  "type": "address"
                },
                {
                  "internalType": "contract IGelatoProviderModule",
                  "name": "module",
                  "type": "address"
                }
              ],
              "internalType": "struct Provider",
              "name": "provider",
              "type": "tuple"
            },
            {
              "internalType": "uint256",
              "name": "index",
              "type": "uint256"
            },
            {
              "components": [
                {
                  "components": [
                    {
                      "internalType": "contract IGelatoCondition",
                      "name": "inst",
                      "type": "address"
                    },
                    {
                      "internalType": "bytes",
                      "name": "data",
                      "type": "bytes"
                    }
                  ],
                  "internalType": "struct Condition[]",
                  "name": "conditions",
                  "type": "tuple[]"
                },
                {
                  "components": [
                    {
                      "internalType": "address",
                      "name": "addr",
                      "type": "address"
                    },
                    {
                      "internalType": "bytes",
                      "name": "data",
                      "type": "bytes"
                    },
                    {
                      "internalType": "enum Operation",
                      "name": "operation",
                      "type": "uint8"
                    },
                    {
                      "internalType": "enum DataFlow",
                      "name": "dataFlow",
                      "type": "uint8"
                    },
                    {
                      "internalType": "uint256",
                      "name": "value",
                      "type": "uint256"
                    },
                    {
                      "internalType": "bool",
                      "name": "termsOkCheck",
                      "type": "bool"
                    }
                  ],
                  "internalType": "struct Action[]",
                  "name": "actions",
                  "type": "tuple[]"
                },
                {
                  "internalType": "uint256",
                  "name": "selfProviderGasLimit",
                  "type": "uint256"
                },
                {
                  "internalType": "uint256",
                  "name": "selfProviderGasPriceCeil",
                  "type": "uint256"
                }
              ],
              "internalType": "struct Task[]",
              "name": "tasks",
              "type": "tuple[]"
            },
            {
              "internalType": "uint256",
              "name": "expiryDate",
              "type": "uint256"
            },
            {
              "internalType": "uint256",
              "name": "cycleId",
              "type": "uint256"
            },
            {
              "internalType": "uint256",
              "name": "submissionsLeft",
              "type": "uint256"
            }
          ],
          "internalType": "struct TaskReceipt[]",
          "name": "_TRs",
          "type": "tuple[]"
        }
      ],
      "name": "multiCancelTasks",
      "outputs": [],
      "stateMutability": "nonpayable",
      "type": "function"
    },
    {
      "inputs": [
        {
          "components": [
            {
              "internalType": "address",
              "name": "addr",
              "type": "address"
            },
            {
              "internalType": "bytes",
              "name": "data",
              "type": "bytes"
            },
            {
              "internalType": "enum Operation",
              "name": "operation",
              "type": "uint8"
            },
            {
              "internalType": "enum DataFlow",
              "name": "dataFlow",
              "type": "uint8"
            },
            {
              "internalType": "uint256",
              "name": "value",
              "type": "uint256"
            },
            {
              "internalType": "bool",
              "name": "termsOkCheck",
              "type": "bool"
            }
          ],
          "internalType": "struct Action[]",
          "name": "_actions",
          "type": "tuple[]"
        }
      ],
      "name": "multiExecActions",
      "outputs": [],
      "stateMutability": "payable",
      "type": "function"
    },
    {
      "inputs": [
        {
          "components": [
            {
              "internalType": "address",
              "name": "addr",
              "type": "address"
            },
            {
              "internalType": "contract IGelatoProviderModule",
              "name": "module",
              "type": "address"
            }
          ],
          "internalType": "struct Provider",
          "name": "_provider",
          "type": "tuple"
        },
        {
          "components": [
            {
              "components": [
                {
                  "internalType": "contract IGelatoCondition",
                  "name": "inst",
                  "type": "address"
                },
                {
                  "internalType": "bytes",
                  "name": "data",
                  "type": "bytes"
                }
              ],
              "internalType": "struct Condition[]",
              "name": "conditions",
              "type": "tuple[]"
            },
            {
              "components": [
                {
                  "internalType": "address",
                  "name": "addr",
                  "type": "address"
                },
                {
                  "internalType": "bytes",
                  "name": "data",
                  "type": "bytes"
                },
                {
                  "internalType": "enum Operation",
                  "name": "operation",
                  "type": "uint8"
                },
                {
                  "internalType": "enum DataFlow",
                  "name": "dataFlow",
                  "type": "uint8"
                },
                {
                  "internalType": "uint256",
                  "name": "value",
                  "type": "uint256"
                },
                {
                  "internalType": "bool",
                  "name": "termsOkCheck",
                  "type": "bool"
                }
              ],
              "internalType": "struct Action[]",
              "name": "actions",
              "type": "tuple[]"
            },
            {
              "internalType": "uint256",
              "name": "selfProviderGasLimit",
              "type": "uint256"
            },
            {
              "internalType": "uint256",
              "name": "selfProviderGasPriceCeil",
              "type": "uint256"
            }
          ],
          "internalType": "struct Task[]",
          "name": "_tasks",
          "type": "tuple[]"
        },
        {
          "internalType": "uint256[]",
          "name": "_expiryDates",
          "type": "uint256[]"
        }
      ],
      "name": "multiSubmitTasks",
      "outputs": [],
      "stateMutability": "nonpayable",
      "type": "function"
    },
    {
      "inputs": [
        {
          "components": [
            {
              "internalType": "address",
              "name": "addr",
              "type": "address"
            },
            {
              "internalType": "contract IGelatoProviderModule",
              "name": "module",
              "type": "address"
            }
          ],
          "internalType": "struct Provider",
          "name": "_provider",
          "type": "tuple"
        },
        {
          "components": [
            {
              "components": [
                {
                  "internalType": "contract IGelatoCondition",
                  "name": "inst",
                  "type": "address"
                },
                {
                  "internalType": "bytes",
                  "name": "data",
                  "type": "bytes"
                }
              ],
              "internalType": "struct Condition[]",
              "name": "conditions",
              "type": "tuple[]"
            },
            {
              "components": [
                {
                  "internalType": "address",
                  "name": "addr",
                  "type": "address"
                },
                {
                  "internalType": "bytes",
                  "name": "data",
                  "type": "bytes"
                },
                {
                  "internalType": "enum Operation",
                  "name": "operation",
                  "type": "uint8"
                },
                {
                  "internalType": "enum DataFlow",
                  "name": "dataFlow",
                  "type": "uint8"
                },
                {
                  "internalType": "uint256",
                  "name": "value",
                  "type": "uint256"
                },
                {
                  "internalType": "bool",
                  "name": "termsOkCheck",
                  "type": "bool"
                }
              ],
              "internalType": "struct Action[]",
              "name": "actions",
              "type": "tuple[]"
            },
            {
              "internalType": "uint256",
              "name": "selfProviderGasLimit",
              "type": "uint256"
            },
            {
              "internalType": "uint256",
              "name": "selfProviderGasPriceCeil",
              "type": "uint256"
            }
          ],
          "internalType": "struct Task",
          "name": "_task",
          "type": "tuple"
        },
        {
          "internalType": "uint256",
          "name": "_expiryDate",
          "type": "uint256"
        }
      ],
      "name": "submitTask",
      "outputs": [],
      "stateMutability": "nonpayable",
      "type": "function"
    },
    {
      "inputs": [
        {
          "components": [
            {
              "internalType": "address",
              "name": "addr",
              "type": "address"
            },
            {
              "internalType": "contract IGelatoProviderModule",
              "name": "module",
              "type": "address"
            }
          ],
          "internalType": "struct Provider",
          "name": "_provider",
          "type": "tuple"
        },
        {
          "components": [
            {
              "components": [
                {
                  "internalType": "contract IGelatoCondition",
                  "name": "inst",
                  "type": "address"
                },
                {
                  "internalType": "bytes",
                  "name": "data",
                  "type": "bytes"
                }
              ],
              "internalType": "struct Condition[]",
              "name": "conditions",
              "type": "tuple[]"
            },
            {
              "components": [
                {
                  "internalType": "address",
                  "name": "addr",
                  "type": "address"
                },
                {
                  "internalType": "bytes",
                  "name": "data",
                  "type": "bytes"
                },
                {
                  "internalType": "enum Operation",
                  "name": "operation",
                  "type": "uint8"
                },
                {
                  "internalType": "enum DataFlow",
                  "name": "dataFlow",
                  "type": "uint8"
                },
                {
                  "internalType": "uint256",
                  "name": "value",
                  "type": "uint256"
                },
                {
                  "internalType": "bool",
                  "name": "termsOkCheck",
                  "type": "bool"
                }
              ],
              "internalType": "struct Action[]",
              "name": "actions",
              "type": "tuple[]"
            },
            {
              "internalType": "uint256",
              "name": "selfProviderGasLimit",
              "type": "uint256"
            },
            {
              "internalType": "uint256",
              "name": "selfProviderGasPriceCeil",
              "type": "uint256"
            }
          ],
          "internalType": "struct Task[]",
          "name": "_tasks",
          "type": "tuple[]"
        },
        {
          "internalType": "uint256",
          "name": "_expiryDate",
          "type": "uint256"
        },
        {
          "internalType": "uint256",
          "name": "_sumOfRequestedTaskSubmits",
          "type": "uint256"
        }
      ],
      "name": "submitTaskChain",
      "outputs": [],
      "stateMutability": "nonpayable",
      "type": "function"
    },
    {
      "inputs": [
        {
          "components": [
            {
              "internalType": "address",
              "name": "addr",
              "type": "address"
            },
            {
              "internalType": "contract IGelatoProviderModule",
              "name": "module",
              "type": "address"
            }
          ],
          "internalType": "struct Provider",
          "name": "_provider",
          "type": "tuple"
        },
        {
          "components": [
            {
              "components": [
                {
                  "internalType": "contract IGelatoCondition",
                  "name": "inst",
                  "type": "address"
                },
                {
                  "internalType": "bytes",
                  "name": "data",
                  "type": "bytes"
                }
              ],
              "internalType": "struct Condition[]",
              "name": "conditions",
              "type": "tuple[]"
            },
            {
              "components": [
                {
                  "internalType": "address",
                  "name": "addr",
                  "type": "address"
                },
                {
                  "internalType": "bytes",
                  "name": "data",
                  "type": "bytes"
                },
                {
                  "internalType": "enum Operation",
                  "name": "operation",
                  "type": "uint8"
                },
                {
                  "internalType": "enum DataFlow",
                  "name": "dataFlow",
                  "type": "uint8"
                },
                {
                  "internalType": "uint256",
                  "name": "value",
                  "type": "uint256"
                },
                {
                  "internalType": "bool",
                  "name": "termsOkCheck",
                  "type": "bool"
                }
              ],
              "internalType": "struct Action[]",
              "name": "actions",
              "type": "tuple[]"
            },
            {
              "internalType": "uint256",
              "name": "selfProviderGasLimit",
              "type": "uint256"
            },
            {
              "internalType": "uint256",
              "name": "selfProviderGasPriceCeil",
              "type": "uint256"
            }
          ],
          "internalType": "struct Task[]",
          "name": "_tasks",
          "type": "tuple[]"
        },
        {
          "internalType": "uint256",
          "name": "_expiryDate",
          "type": "uint256"
        },
        {
          "internalType": "uint256",
          "name": "_cycles",
          "type": "uint256"
        }
      ],
      "name": "submitTaskCycle",
      "outputs": [],
      "stateMutability": "nonpayable",
      "type": "function"
    },
    {
      "inputs": [],
      "name": "user",
      "outputs": [
        {
          "internalType": "address",
          "name": "",
          "type": "address"
        }
      ],
      "stateMutability": "view",
      "type": "function"
    },
    {
      "stateMutability": "payable",
      "type": "receive"
    }
  ],
  "bytecode": "0x60e0604052604051620020a0380380620020a08339810160408190526200002691620000aa565b816001600160a01b038116620000595760405162461bcd60e51b81526004016200005090620000e8565b60405180910390fd5b816001600160a01b038116620000835760405162461bcd60e51b81526004016200005090620000e8565b505033606090811b6080526001600160601b031992811b831660a0521b1660c05262000138565b60008060408385031215620000bd578182fd5b8251620000ca816200011f565b6020840151909250620000dd816200011f565b809150509250929050565b6020808252601d908201527f47656c61746f5573657250726f78792e6e6f5a65726f41646472657373000000604082015260600190565b6001600160a01b03811681146200013557600080fd5b50565b60805160601c60a05160601c60c05160601c611ec4620001dc600039806102a152806103f55280610523528061064c528061078152806108345280610aa15280610be85280610c9f525080610212528061042752806104cf52806105cb52806105f852806106fa52806108665280610ad35280610c15525080610244528061045a528061072c52806108995280610a745280610b065280610c475250611ec46000f3fe6080604052600436106100ab5760003560e01c8063b348e26811610064578063b348e26814610177578063c0fa77dd14610197578063c45a0155146101aa578063d50d804b146101bf578063fe861b99146101d2578063ff92b1a8146101e7576100b2565b806302526490146100b75780630d20495c146100d95780633e3cf810146100f95780633e75a9a81461010c5780634f8632ba1461012c578063a4c1225614610157576100b2565b366100b257005b600080fd5b3480156100c357600080fd5b506100d76100d23660046111b0565b610207565b005b3480156100e557600080fd5b506100d76100f4366004611132565b610376565b6100d7610107366004611023565b6103ea565b34801561011857600080fd5b506100d76101273660046110b0565b6104c4565b34801561013857600080fd5b506101416105c9565b60405161014e91906117e7565b60405180910390f35b34801561016357600080fd5b506100d761017236600461126f565b6105ed565b34801561018357600080fd5b506100d76101923660046111b0565b6106ef565b6100d76101a5366004610fe4565b610829565b3480156101b657600080fd5b50610141610a72565b6100d76101cd3660046110f2565b610a96565b3480156101de57600080fd5b50610141610be6565b3480156101f357600080fd5b506100d7610202366004611213565b610c0a565b336001600160a01b037f00000000000000000000000000000000000000000000000000000000000000001614806102665750336001600160a01b037f000000000000000000000000000000000000000000000000000000000000000016145b61028b5760405162461bcd60e51b815260040161028290611b9a565b60405180910390fd5b6040516225264960e41b81526001600160a01b037f000000000000000000000000000000000000000000000000000000000000000016906302526490906102de9088908890889088908890600401611bdf565b600060405180830381600087803b1580156102f857600080fd5b505af1925050508015610309575060015b61036f57610315611da3565b806103205750610357565b806040516020016103319190611728565b60408051601f198184030181529082905262461bcd60e51b82526102829160040161185d565b60405162461bcd60e51b815260040161028290611a5a565b5050505050565b8281146103955760405162461bcd60e51b81526004016102829061191f565b60005b838110156103e2576103da868686848181106103b057fe5b90506020028101906103c29190611cbc565b8585858181106103ce57fe5b90506020020135610c0a565b600101610398565b505050505050565b336001600160a01b037f00000000000000000000000000000000000000000000000000000000000000001614806104495750336001600160a01b037f000000000000000000000000000000000000000000000000000000000000000016145b8061047c5750336001600160a01b037f000000000000000000000000000000000000000000000000000000000000000016145b6104985760405162461bcd60e51b815260040161028290611ad9565b85156104a8576104a88787610829565b82156104bb576104bb85858585856106ef565b50505050505050565b336001600160a01b037f0000000000000000000000000000000000000000000000000000000000000000161461050c5760405162461bcd60e51b815260040161028290611aa4565b6040516307ceb53560e31b81526001600160a01b037f00000000000000000000000000000000000000000000000000000000000000001690633e75a9a89061055a90859085906004016117fb565b600060405180830381600087803b15801561057457600080fd5b505af1925050508015610585575060015b6105c557610591611da3565b8061059c57506105ad565b806040516020016103319190611798565b60405162461bcd60e51b8152600401610282906119c2565b5050565b7f000000000000000000000000000000000000000000000000000000000000000081565b336001600160a01b037f000000000000000000000000000000000000000000000000000000000000000016146106355760405162461bcd60e51b815260040161028290611aa4565b604051635260912b60e11b81526001600160a01b037f0000000000000000000000000000000000000000000000000000000000000000169063a4c1225690610681908490600401611c44565b600060405180830381600087803b15801561069b57600080fd5b505af19250505080156106ac575060015b6106ec576106b8611da3565b806106c357506106d4565b80604051602001610331919061169e565b60405162461bcd60e51b815260040161028290611890565b50565b336001600160a01b037f000000000000000000000000000000000000000000000000000000000000000016148061074e5750336001600160a01b037f000000000000000000000000000000000000000000000000000000000000000016145b61076a5760405162461bcd60e51b815260040161028290611b9a565b6040516316691c4d60e31b81526001600160a01b037f0000000000000000000000000000000000000000000000000000000000000000169063b348e268906107be9088908890889088908890600401611bdf565b600060405180830381600087803b1580156107d857600080fd5b505af19250505080156107e9575060015b61036f576107f5611da3565b806108005750610811565b8060405160200161033191906116e3565b60405162461bcd60e51b8152600401610282906118d5565b336001600160a01b037f00000000000000000000000000000000000000000000000000000000000000001614806108885750336001600160a01b037f000000000000000000000000000000000000000000000000000000000000000016145b806108bb5750336001600160a01b037f000000000000000000000000000000000000000000000000000000000000000016145b6108d75760405162461bcd60e51b815260040161028290611ad9565b60005b81811015610a6d5760008383838181106108f057fe5b90506020028101906109029190611c9d565b6109139060608101906040016110d7565b600181111561091e57fe5b14156109ab576109a683838381811061093357fe5b90506020028101906109459190611c9d565b610953906020810190610fc1565b84848481811061095f57fe5b90506020028101906109719190611c9d565b61097f906020810190611c57565b86868681811061098b57fe5b905060200281019061099d9190611c9d565b60800135610d43565b610a65565b60018383838181106109b957fe5b90506020028101906109cb9190611c9d565b6109dc9060608101906040016110d7565b60018111156109e757fe5b1415610a4d576109a68383838181106109fc57fe5b9050602002810190610a0e9190611c9d565b610a1c906020810190610fc1565b848484818110610a2857fe5b9050602002810190610a3a9190611c9d565b610a48906020810190611c57565b610e1a565b60405162461bcd60e51b815260040161028290611b10565b6001016108da565b505050565b7f000000000000000000000000000000000000000000000000000000000000000081565b336001600160a01b037f0000000000000000000000000000000000000000000000000000000000000000161480610af55750336001600160a01b037f000000000000000000000000000000000000000000000000000000000000000016145b80610b285750336001600160a01b037f000000000000000000000000000000000000000000000000000000000000000016145b610b445760405162461bcd60e51b815260040161028290611ad9565b6000610b5660608301604084016110d7565b6001811115610b6157fe5b1415610b8e576106ec610b776020830183610fc1565b610b846020840184611c57565b8460800135610d43565b6001610ba060608301604084016110d7565b6001811115610bab57fe5b1415610bce576106ec610bc16020830183610fc1565b610a486020840184611c57565b60405162461bcd60e51b815260040161028290611a0d565b7f000000000000000000000000000000000000000000000000000000000000000081565b336001600160a01b037f0000000000000000000000000000000000000000000000000000000000000000161480610c695750336001600160a01b037f000000000000000000000000000000000000000000000000000000000000000016145b610c855760405162461bcd60e51b815260040161028290611b9a565b6040516001620da9cb60e31b031981526001600160a01b037f0000000000000000000000000000000000000000000000000000000000000000169063ff92b1a890610cd890869086908690600401611c14565b600060405180830381600087803b158015610cf257600080fd5b505af1925050508015610d03575060015b610a6d57610d0f611da3565b80610d1a5750610d2b565b806040516020016103319190611760565b60405162461bcd60e51b81526004016102829061197d565b836001600160a01b038116610d6a5760405162461bcd60e51b815260040161028290611b63565b60006060866001600160a01b0316848787604051610d899291906115f5565b60006040518083038185875af1925050503d8060008114610dc6576040519150601f19603f3d011682016040523d82523d6000602084013e610dcb565b606091505b5091509150816104bb5760408051808201909152601c81527f47656c61746f5573657250726f78792e5f63616c6c416374696f6e3a0000000060208201526104bb90829063ffffffff610ed216565b826001600160a01b038116610e415760405162461bcd60e51b815260040161028290611b63565b60006060856001600160a01b03168585604051610e5f9291906115f5565b600060405180830381855af49150503d8060008114610e9a576040519150601f19603f3d011682016040523d82523d6000602084013e610e9f565b606091505b5091509150816103e2576103e2604051806060016040528060248152602001611e6b60249139829063ffffffff610ed216565b6020825181610edd57fe5b0660041415610f2d57602082015162461bcd60e51b6001600160e01b031982161415610f1c576044830192508183604051602001610331929190611605565b816040516020016103319190611633565b806040516020016103319190611666565b60008083601f840112610f4f578182fd5b5081356001600160401b03811115610f65578182fd5b6020830191508360208083028501011115610f7f57600080fd5b9250929050565b803560048110610f9557600080fd5b92915050565b803560028110610f9557600080fd5b600060408284031215610fbb578081fd5b50919050565b600060208284031215610fd2578081fd5b8135610fdd81611e55565b9392505050565b60008060208385031215610ff6578081fd5b82356001600160401b0381111561100b578182fd5b61101785828601610f3e565b90969095509350505050565b600080600080600080600060c0888a03121561103d578283fd5b87356001600160401b0380821115611053578485fd5b61105f8b838c01610f3e565b90995097506110718b60208c01610faa565b965060608a0135915080821115611086578485fd5b506110938a828b01610f3e565b989b979a50959895979660808701359660a0013595509350505050565b600080602083850312156110c2578182fd5b82356001600160401b0381111561100b578283fd5b6000602082840312156110e8578081fd5b610fdd8383610f9b565b600060208284031215611103578081fd5b81356001600160401b03811115611118578182fd5b80830160c0818603121561112a578283fd5b949350505050565b600080600080600060808688031215611149578081fd5b6111538787610faa565b945060408601356001600160401b038082111561116e578283fd5b61117a89838a01610f3e565b90965094506060880135915080821115611192578283fd5b5061119f88828901610f3e565b969995985093965092949392505050565b600080600080600060a086880312156111c7578081fd5b6111d18787610faa565b945060408601356001600160401b038111156111eb578182fd5b6111f788828901610f3e565b9699909850959660608101359660809091013595509350505050565b600080600060808486031215611227578283fd5b6112318585610faa565b925060408401356001600160401b0381111561124b578283fd5b8085016080818803121561125d578384fd5b93969395505050506060919091013590565b600060208284031215611280578081fd5b81356001600160401b03811115611295578182fd5b808301610120818603121561112a578283fd5b600081356112b581611e55565b6001600160a01b031683526112cd6020830183611d29565b604060208601526112e2604086018284611445565b95945050505050565b818352602080840193600091908185020181018584845b878110156113dc578284038952813560be19883603018112611322578687fd5b60c0908801803561133281611e55565b6001600160a01b0316865261134981880182611d29565b838989015261135b8489018284611445565b6040945060609250828401915061137482868601610f9b565b61137d81611e4b565b80868b015250608094508484016113948184610f86565b6113a0858c018261146f565b508035868b01525060a094506113b885850185611d18565b92506113c6858a018461143f565b9c89019c97505050928601925050600101611302565b5091979650505050505050565b818352602080840193600091908185020181018584845b878110156113dc5782840389528135607e19883603018112611420578687fd5b61142c8589830161153f565b9986019994505090840190600101611400565b15159052565b60008284528282602086013780602084860101526020601f19601f85011685010190509392505050565b6004811061147957fe5b9052565b803561148881611e55565b6001600160a01b0390811683526020820135906114a482611e55565b808216602085015250505050565b60006101208235845260208301356114c981611e55565b6001600160a01b031660208501526114e7604080860190850161147d565b608083013560808501526114fe60a0840184611cd1565b8260a087015261151183870182846113e9565b60c086013560c088015260e086013560e0880152610100935083860135848801528094505050505092915050565b60006080830161154f8384611cd1565b608086529182905260209160a08087019084830288010183865b848110156115ad57898303609f19018452813536879003603e1901811261158e578889fd5b61159a848883016112a8565b9488019493505090860190600101611569565b50506115bb85880188611cd1565b94509250878103858901526115d18185856112eb565b94505050505060408301356040850152606083013560608501528091505092915050565b6000828483379101908152919050565b60008351611617818460208801611d6d565b835190830161162a828260208801611d6d565b01949350505050565b60008251611645818460208701611d6d565b6e2737a2b93937b929b2b632b1ba37b960891b920191825250600f01919050565b60008251611678818460208701611d6d565b73556e657870656374656452657475726e6461746160601b920191825250601401919050565b60007f47656c61746f5573657250726f78792e63616e63656c5461736b3a0000000000825282516116d681601b850160208701611d6d565b91909101601b0192915050565b60007f47656c61746f5573657250726f78792e7375626d69745461736b4379636c653a8252825161171b816020850160208701611d6d565b9190910160200192915050565b60007f47656c61746f5573657250726f78792e7375626d69745461736b436861696e3a8252825161171b816020850160208701611d6d565b60007f47656c61746f5573657250726f78792e7375626d69745461736b3a0000000000825282516116d681601b850160208701611d6d565b60007f47656c61746f5573657250726f78792e6d756c746943616e63656c5461736b738252601d60f91b602083015282516117da816021850160208701611d6d565b9190910160210192915050565b6001600160a01b0391909116815260200190565b602080825281810183905260009060408482028401810190840186845b878110156113dc57868403603f190183528135368a900361011e1901811261183e578687fd5b61184a858b83016114b2565b9450509184019190840190600101611818565b600060208252825180602084015261187c816040850160208701611d6d565b601f01601f19169190910160400192915050565b60208082526025908201527f47656c61746f5573657250726f78792e63616e63656c5461736b3a756e6465666040820152641a5b99195960da1b606082015260800190565b6020808252602a908201527f47656c61746f5573657250726f78792e7375626d69745461736b4379636c653a6040820152691d5b9919599a5b99195960b21b606082015260800190565b602080825260409082018190527f47656c61746f5573657250726f78792e6d756c74695375626d69745461736b73908201527f3a2065616368207461736b206e65656473206f776e2065787069727944617465606082015260800190565b60208082526025908201527f47656c61746f5573657250726f78792e7375626d69745461736b3a756e6465666040820152641a5b99195960da1b606082015260800190565b6020808252602b908201527f47656c61746f5573657250726f78792e6d756c746943616e63656c5461736b7360408201526a0e9d5b9919599a5b99195960aa1b606082015260800190565b6020808252602d908201527f47656c61746f5573657250726f78792e65786563416374696f6e3a20696e766160408201526c3634b21037b832b930ba34b7b760991b606082015260800190565b6020808252602a908201527f47656c61746f5573657250726f78792e7375626d69745461736b436861696e3a6040820152691d5b9919599a5b99195960b21b606082015260800190565b6020808252818101527f47656c61746f5573657250726f78792e6f6e6c79557365723a206661696c6564604082015260600190565b6020808252601c908201527f47656c61746f5573657250726f78792e617574683a206661696c656400000000604082015260600190565b60208082526033908201527f47656c61746f5573657250726f78792e6d756c746945786563416374696f6e736040820152721d1034b73b30b634b21037b832b930ba34b7b760691b606082015260800190565b6020808252601d908201527f47656c61746f5573657250726f78792e6e6f5a65726f41646472657373000000604082015260600190565b60208082526025908201527f47656c61746f5573657250726f78792e757365724f72466163746f72793a2066604082015264185a5b195960da1b606082015260800190565b6000611beb828861147d565b60a06040830152611c0060a0830186886113e9565b606083019490945250608001529392505050565b6000611c20828661147d565b60806040830152611c34608083018561153f565b9050826060830152949350505050565b600060208252610fdd60208301846114b2565b6000808335601e19843603018112611c6d578283fd5b808401803592506001600160401b03831115611c87578384fd5b60200192505036819003821315610f7f57600080fd5b6000823560be19833603018112611cb2578182fd5b9190910192915050565b60008235607e19833603018112611cb2578182fd5b6000808335601e19843603018112611ce7578283fd5b83016020810192503590506001600160401b03811115611d0657600080fd5b602081023603831315610f7f57600080fd5b600082358015158114610fdd578182fd5b6000808335601e19843603018112611d3f578283fd5b83016020810192503590506001600160401b03811115611d5e57600080fd5b803603831315610f7f57600080fd5b60005b83811015611d88578181015183820152602001611d70565b83811115611d97576000848401525b50505050565b60e01c90565b600060443d1015611db357611e48565b600481823e6308c379a0611dc78251611d9d565b14611dd157611e48565b6040513d600319016004823e80513d6001600160401b038160248401118184111715611e005750505050611e48565b82840191508151925080831115611e1a5750505050611e48565b503d83016020838301011115611e3257505050611e48565b601f91909101601f191681016020016040529150505b90565b600281106106ec57fe5b6001600160a01b03811681146106ec57600080fdfe47656c61746f5573657250726f78792e5f64656c656761746563616c6c416374696f6e3aa2646970667358221220280a762d64600f368f12911bb1b3a9f353ef08f3840787736ee1a7b3b752c94664736f6c634300060a0033",
  "linkReferences": {},
  "deployedLinkReferences": {}
}