{
  "_format": "hh-sol-artifact-1",
  "contractName": "GelatoUserProxy",
  "sourceName": "contracts/user_proxies/GelatoUserProxy.sol",
  "abi": [
    {
      "inputs": [
        {
          "internalType": "address",
          "name": "_user",
          "type": "address"
        },
        {
          "internalType": "address",
          "name": "_gelatoCore",
          "type": "address"
        }
      ],
      "stateMutability": "payable",
      "type": "constructor"
    },
    {
      "inputs": [
        {
          "components": [
            {
              "internalType": "uint256",
              "name": "id",
              "type": "uint256"
            },
            {
              "internalType": "address",
              "name": "userProxy",
              "type": "address"
            },
            {
              "components": [
                {
                  "internalType": "address",
                  "name": "addr",
                  "type": "address"
                },
                {
                  "internalType": "contract IGelatoProviderModule",
                  "name": "module",
                  "type": "address"
                }
              ],
              "internalType": "struct Provider",
              "name": "provider",
              "type": "tuple"
            },
            {
              "internalType": "uint256",
              "name": "index",
              "type": "uint256"
            },
            {
              "components": [
                {
                  "components": [
                    {
                      "internalType": "contract IGelatoCondition",
                      "name": "inst",
                      "type": "address"
                    },
                    {
                      "internalType": "bytes",
                      "name": "data",
                      "type": "bytes"
                    }
                  ],
                  "internalType": "struct Condition[]",
                  "name": "conditions",
                  "type": "tuple[]"
                },
                {
                  "components": [
                    {
                      "internalType": "address",
                      "name": "addr",
                      "type": "address"
                    },
                    {
                      "internalType": "bytes",
                      "name": "data",
                      "type": "bytes"
                    },
                    {
                      "internalType": "enum Operation",
                      "name": "operation",
                      "type": "uint8"
                    },
                    {
                      "internalType": "enum DataFlow",
                      "name": "dataFlow",
                      "type": "uint8"
                    },
                    {
                      "internalType": "uint256",
                      "name": "value",
                      "type": "uint256"
                    },
                    {
                      "internalType": "bool",
                      "name": "termsOkCheck",
                      "type": "bool"
                    }
                  ],
                  "internalType": "struct Action[]",
                  "name": "actions",
                  "type": "tuple[]"
                },
                {
                  "internalType": "uint256",
                  "name": "selfProviderGasLimit",
                  "type": "uint256"
                },
                {
                  "internalType": "uint256",
                  "name": "selfProviderGasPriceCeil",
                  "type": "uint256"
                }
              ],
              "internalType": "struct Task[]",
              "name": "tasks",
              "type": "tuple[]"
            },
            {
              "internalType": "uint256",
              "name": "expiryDate",
              "type": "uint256"
            },
            {
              "internalType": "uint256",
              "name": "cycleId",
              "type": "uint256"
            },
            {
              "internalType": "uint256",
              "name": "submissionsLeft",
              "type": "uint256"
            }
          ],
          "internalType": "struct TaskReceipt",
          "name": "_TR",
          "type": "tuple"
        }
      ],
      "name": "cancelTask",
      "outputs": [],
      "stateMutability": "nonpayable",
      "type": "function"
    },
    {
      "inputs": [
        {
          "components": [
            {
              "internalType": "address",
              "name": "addr",
              "type": "address"
            },
            {
              "internalType": "bytes",
              "name": "data",
              "type": "bytes"
            },
            {
              "internalType": "enum Operation",
              "name": "operation",
              "type": "uint8"
            },
            {
              "internalType": "enum DataFlow",
              "name": "dataFlow",
              "type": "uint8"
            },
            {
              "internalType": "uint256",
              "name": "value",
              "type": "uint256"
            },
            {
              "internalType": "bool",
              "name": "termsOkCheck",
              "type": "bool"
            }
          ],
          "internalType": "struct Action",
          "name": "_action",
          "type": "tuple"
        }
      ],
      "name": "execAction",
      "outputs": [],
      "stateMutability": "payable",
      "type": "function"
    },
    {
      "inputs": [
        {
          "components": [
            {
              "internalType": "address",
              "name": "addr",
              "type": "address"
            },
            {
              "internalType": "bytes",
              "name": "data",
              "type": "bytes"
            },
            {
              "internalType": "enum Operation",
              "name": "operation",
              "type": "uint8"
            },
            {
              "internalType": "enum DataFlow",
              "name": "dataFlow",
              "type": "uint8"
            },
            {
              "internalType": "uint256",
              "name": "value",
              "type": "uint256"
            },
            {
              "internalType": "bool",
              "name": "termsOkCheck",
              "type": "bool"
            }
          ],
          "internalType": "struct Action[]",
          "name": "_actions",
          "type": "tuple[]"
        },
        {
          "components": [
            {
              "internalType": "address",
              "name": "addr",
              "type": "address"
            },
            {
              "internalType": "contract IGelatoProviderModule",
              "name": "module",
              "type": "address"
            }
          ],
          "internalType": "struct Provider",
          "name": "_provider",
          "type": "tuple"
        },
        {
          "components": [
            {
              "components": [
                {
                  "internalType": "contract IGelatoCondition",
                  "name": "inst",
                  "type": "address"
                },
                {
                  "internalType": "bytes",
                  "name": "data",
                  "type": "bytes"
                }
              ],
              "internalType": "struct Condition[]",
              "name": "conditions",
              "type": "tuple[]"
            },
            {
              "components": [
                {
                  "internalType": "address",
                  "name": "addr",
                  "type": "address"
                },
                {
                  "internalType": "bytes",
                  "name": "data",
                  "type": "bytes"
                },
                {
                  "internalType": "enum Operation",
                  "name": "operation",
                  "type": "uint8"
                },
                {
                  "internalType": "enum DataFlow",
                  "name": "dataFlow",
                  "type": "uint8"
                },
                {
                  "internalType": "uint256",
                  "name": "value",
                  "type": "uint256"
                },
                {
                  "internalType": "bool",
                  "name": "termsOkCheck",
                  "type": "bool"
                }
              ],
              "internalType": "struct Action[]",
              "name": "actions",
              "type": "tuple[]"
            },
            {
              "internalType": "uint256",
              "name": "selfProviderGasLimit",
              "type": "uint256"
            },
            {
              "internalType": "uint256",
              "name": "selfProviderGasPriceCeil",
              "type": "uint256"
            }
          ],
          "internalType": "struct Task[]",
          "name": "_tasks",
          "type": "tuple[]"
        },
        {
          "internalType": "uint256",
          "name": "_expiryDate",
          "type": "uint256"
        },
        {
          "internalType": "uint256",
          "name": "_cycles",
          "type": "uint256"
        }
      ],
      "name": "execActionsAndSubmitTaskCycle",
      "outputs": [],
      "stateMutability": "payable",
      "type": "function"
    },
    {
      "inputs": [],
      "name": "factory",
      "outputs": [
        {
          "internalType": "address",
          "name": "",
          "type": "address"
        }
      ],
      "stateMutability": "view",
      "type": "function"
    },
    {
      "inputs": [],
      "name": "gelatoCore",
      "outputs": [
        {
          "internalType": "address",
          "name": "",
          "type": "address"
        }
      ],
      "stateMutability": "view",
      "type": "function"
    },
    {
      "inputs": [
        {
          "components": [
            {
              "internalType": "uint256",
              "name": "id",
              "type": "uint256"
            },
            {
              "internalType": "address",
              "name": "userProxy",
              "type": "address"
            },
            {
              "components": [
                {
                  "internalType": "address",
                  "name": "addr",
                  "type": "address"
                },
                {
                  "internalType": "contract IGelatoProviderModule",
                  "name": "module",
                  "type": "address"
                }
              ],
              "internalType": "struct Provider",
              "name": "provider",
              "type": "tuple"
            },
            {
              "internalType": "uint256",
              "name": "index",
              "type": "uint256"
            },
            {
              "components": [
                {
                  "components": [
                    {
                      "internalType": "contract IGelatoCondition",
                      "name": "inst",
                      "type": "address"
                    },
                    {
                      "internalType": "bytes",
                      "name": "data",
                      "type": "bytes"
                    }
                  ],
                  "internalType": "struct Condition[]",
                  "name": "conditions",
                  "type": "tuple[]"
                },
                {
                  "components": [
                    {
                      "internalType": "address",
                      "name": "addr",
                      "type": "address"
                    },
                    {
                      "internalType": "bytes",
                      "name": "data",
                      "type": "bytes"
                    },
                    {
                      "internalType": "enum Operation",
                      "name": "operation",
                      "type": "uint8"
                    },
                    {
                      "internalType": "enum DataFlow",
                      "name": "dataFlow",
                      "type": "uint8"
                    },
                    {
                      "internalType": "uint256",
                      "name": "value",
                      "type": "uint256"
                    },
                    {
                      "internalType": "bool",
                      "name": "termsOkCheck",
                      "type": "bool"
                    }
                  ],
                  "internalType": "struct Action[]",
                  "name": "actions",
                  "type": "tuple[]"
                },
                {
                  "internalType": "uint256",
                  "name": "selfProviderGasLimit",
                  "type": "uint256"
                },
                {
                  "internalType": "uint256",
                  "name": "selfProviderGasPriceCeil",
                  "type": "uint256"
                }
              ],
              "internalType": "struct Task[]",
              "name": "tasks",
              "type": "tuple[]"
            },
            {
              "internalType": "uint256",
              "name": "expiryDate",
              "type": "uint256"
            },
            {
              "internalType": "uint256",
              "name": "cycleId",
              "type": "uint256"
            },
            {
              "internalType": "uint256",
              "name": "submissionsLeft",
              "type": "uint256"
            }
          ],
          "internalType": "struct TaskReceipt[]",
          "name": "_TRs",
          "type": "tuple[]"
        }
      ],
      "name": "multiCancelTasks",
      "outputs": [],
      "stateMutability": "nonpayable",
      "type": "function"
    },
    {
      "inputs": [
        {
          "components": [
            {
              "internalType": "address",
              "name": "addr",
              "type": "address"
            },
            {
              "internalType": "bytes",
              "name": "data",
              "type": "bytes"
            },
            {
              "internalType": "enum Operation",
              "name": "operation",
              "type": "uint8"
            },
            {
              "internalType": "enum DataFlow",
              "name": "dataFlow",
              "type": "uint8"
            },
            {
              "internalType": "uint256",
              "name": "value",
              "type": "uint256"
            },
            {
              "internalType": "bool",
              "name": "termsOkCheck",
              "type": "bool"
            }
          ],
          "internalType": "struct Action[]",
          "name": "_actions",
          "type": "tuple[]"
        }
      ],
      "name": "multiExecActions",
      "outputs": [],
      "stateMutability": "payable",
      "type": "function"
    },
    {
      "inputs": [
        {
          "components": [
            {
              "internalType": "address",
              "name": "addr",
              "type": "address"
            },
            {
              "internalType": "contract IGelatoProviderModule",
              "name": "module",
              "type": "address"
            }
          ],
          "internalType": "struct Provider",
          "name": "_provider",
          "type": "tuple"
        },
        {
          "components": [
            {
              "components": [
                {
                  "internalType": "contract IGelatoCondition",
                  "name": "inst",
                  "type": "address"
                },
                {
                  "internalType": "bytes",
                  "name": "data",
                  "type": "bytes"
                }
              ],
              "internalType": "struct Condition[]",
              "name": "conditions",
              "type": "tuple[]"
            },
            {
              "components": [
                {
                  "internalType": "address",
                  "name": "addr",
                  "type": "address"
                },
                {
                  "internalType": "bytes",
                  "name": "data",
                  "type": "bytes"
                },
                {
                  "internalType": "enum Operation",
                  "name": "operation",
                  "type": "uint8"
                },
                {
                  "internalType": "enum DataFlow",
                  "name": "dataFlow",
                  "type": "uint8"
                },
                {
                  "internalType": "uint256",
                  "name": "value",
                  "type": "uint256"
                },
                {
                  "internalType": "bool",
                  "name": "termsOkCheck",
                  "type": "bool"
                }
              ],
              "internalType": "struct Action[]",
              "name": "actions",
              "type": "tuple[]"
            },
            {
              "internalType": "uint256",
              "name": "selfProviderGasLimit",
              "type": "uint256"
            },
            {
              "internalType": "uint256",
              "name": "selfProviderGasPriceCeil",
              "type": "uint256"
            }
          ],
          "internalType": "struct Task[]",
          "name": "_tasks",
          "type": "tuple[]"
        },
        {
          "internalType": "uint256[]",
          "name": "_expiryDates",
          "type": "uint256[]"
        }
      ],
      "name": "multiSubmitTasks",
      "outputs": [],
      "stateMutability": "nonpayable",
      "type": "function"
    },
    {
      "inputs": [
        {
          "components": [
            {
              "internalType": "address",
              "name": "addr",
              "type": "address"
            },
            {
              "internalType": "contract IGelatoProviderModule",
              "name": "module",
              "type": "address"
            }
          ],
          "internalType": "struct Provider",
          "name": "_provider",
          "type": "tuple"
        },
        {
          "components": [
            {
              "components": [
                {
                  "internalType": "contract IGelatoCondition",
                  "name": "inst",
                  "type": "address"
                },
                {
                  "internalType": "bytes",
                  "name": "data",
                  "type": "bytes"
                }
              ],
              "internalType": "struct Condition[]",
              "name": "conditions",
              "type": "tuple[]"
            },
            {
              "components": [
                {
                  "internalType": "address",
                  "name": "addr",
                  "type": "address"
                },
                {
                  "internalType": "bytes",
                  "name": "data",
                  "type": "bytes"
                },
                {
                  "internalType": "enum Operation",
                  "name": "operation",
                  "type": "uint8"
                },
                {
                  "internalType": "enum DataFlow",
                  "name": "dataFlow",
                  "type": "uint8"
                },
                {
                  "internalType": "uint256",
                  "name": "value",
                  "type": "uint256"
                },
                {
                  "internalType": "bool",
                  "name": "termsOkCheck",
                  "type": "bool"
                }
              ],
              "internalType": "struct Action[]",
              "name": "actions",
              "type": "tuple[]"
            },
            {
              "internalType": "uint256",
              "name": "selfProviderGasLimit",
              "type": "uint256"
            },
            {
              "internalType": "uint256",
              "name": "selfProviderGasPriceCeil",
              "type": "uint256"
            }
          ],
          "internalType": "struct Task",
          "name": "_task",
          "type": "tuple"
        },
        {
          "internalType": "uint256",
          "name": "_expiryDate",
          "type": "uint256"
        }
      ],
      "name": "submitTask",
      "outputs": [],
      "stateMutability": "nonpayable",
      "type": "function"
    },
    {
      "inputs": [
        {
          "components": [
            {
              "internalType": "address",
              "name": "addr",
              "type": "address"
            },
            {
              "internalType": "contract IGelatoProviderModule",
              "name": "module",
              "type": "address"
            }
          ],
          "internalType": "struct Provider",
          "name": "_provider",
          "type": "tuple"
        },
        {
          "components": [
            {
              "components": [
                {
                  "internalType": "contract IGelatoCondition",
                  "name": "inst",
                  "type": "address"
                },
                {
                  "internalType": "bytes",
                  "name": "data",
                  "type": "bytes"
                }
              ],
              "internalType": "struct Condition[]",
              "name": "conditions",
              "type": "tuple[]"
            },
            {
              "components": [
                {
                  "internalType": "address",
                  "name": "addr",
                  "type": "address"
                },
                {
                  "internalType": "bytes",
                  "name": "data",
                  "type": "bytes"
                },
                {
                  "internalType": "enum Operation",
                  "name": "operation",
                  "type": "uint8"
                },
                {
                  "internalType": "enum DataFlow",
                  "name": "dataFlow",
                  "type": "uint8"
                },
                {
                  "internalType": "uint256",
                  "name": "value",
                  "type": "uint256"
                },
                {
                  "internalType": "bool",
                  "name": "termsOkCheck",
                  "type": "bool"
                }
              ],
              "internalType": "struct Action[]",
              "name": "actions",
              "type": "tuple[]"
            },
            {
              "internalType": "uint256",
              "name": "selfProviderGasLimit",
              "type": "uint256"
            },
            {
              "internalType": "uint256",
              "name": "selfProviderGasPriceCeil",
              "type": "uint256"
            }
          ],
          "internalType": "struct Task[]",
          "name": "_tasks",
          "type": "tuple[]"
        },
        {
          "internalType": "uint256",
          "name": "_expiryDate",
          "type": "uint256"
        },
        {
          "internalType": "uint256",
          "name": "_sumOfRequestedTaskSubmits",
          "type": "uint256"
        }
      ],
      "name": "submitTaskChain",
      "outputs": [],
      "stateMutability": "nonpayable",
      "type": "function"
    },
    {
      "inputs": [
        {
          "components": [
            {
              "internalType": "address",
              "name": "addr",
              "type": "address"
            },
            {
              "internalType": "contract IGelatoProviderModule",
              "name": "module",
              "type": "address"
            }
          ],
          "internalType": "struct Provider",
          "name": "_provider",
          "type": "tuple"
        },
        {
          "components": [
            {
              "components": [
                {
                  "internalType": "contract IGelatoCondition",
                  "name": "inst",
                  "type": "address"
                },
                {
                  "internalType": "bytes",
                  "name": "data",
                  "type": "bytes"
                }
              ],
              "internalType": "struct Condition[]",
              "name": "conditions",
              "type": "tuple[]"
            },
            {
              "components": [
                {
                  "internalType": "address",
                  "name": "addr",
                  "type": "address"
                },
                {
                  "internalType": "bytes",
                  "name": "data",
                  "type": "bytes"
                },
                {
                  "internalType": "enum Operation",
                  "name": "operation",
                  "type": "uint8"
                },
                {
                  "internalType": "enum DataFlow",
                  "name": "dataFlow",
                  "type": "uint8"
                },
                {
                  "internalType": "uint256",
                  "name": "value",
                  "type": "uint256"
                },
                {
                  "internalType": "bool",
                  "name": "termsOkCheck",
                  "type": "bool"
                }
              ],
              "internalType": "struct Action[]",
              "name": "actions",
              "type": "tuple[]"
            },
            {
              "internalType": "uint256",
              "name": "selfProviderGasLimit",
              "type": "uint256"
            },
            {
              "internalType": "uint256",
              "name": "selfProviderGasPriceCeil",
              "type": "uint256"
            }
          ],
          "internalType": "struct Task[]",
          "name": "_tasks",
          "type": "tuple[]"
        },
        {
          "internalType": "uint256",
          "name": "_expiryDate",
          "type": "uint256"
        },
        {
          "internalType": "uint256",
          "name": "_cycles",
          "type": "uint256"
        }
      ],
      "name": "submitTaskCycle",
      "outputs": [],
      "stateMutability": "nonpayable",
      "type": "function"
    },
    {
      "inputs": [],
      "name": "user",
      "outputs": [
        {
          "internalType": "address",
          "name": "",
          "type": "address"
        }
      ],
      "stateMutability": "view",
      "type": "function"
    },
    {
      "stateMutability": "payable",
      "type": "receive"
    }
  ],
  "bytecode": "0x60e0604052604051620020be380380620020be8339810160408190526200002691620000aa565b816001600160a01b038116620000595760405162461bcd60e51b81526004016200005090620000e8565b60405180910390fd5b816001600160a01b038116620000835760405162461bcd60e51b81526004016200005090620000e8565b505033606090811b6080526001600160601b031992811b831660a0521b1660c05262000138565b60008060408385031215620000bd578182fd5b8251620000ca816200011f565b6020840151909250620000dd816200011f565b809150509250929050565b6020808252601d908201527f47656c61746f5573657250726f78792e6e6f5a65726f41646472657373000000604082015260600190565b6001600160a01b03811681146200013557600080fd5b50565b60805160601c60a05160601c60c05160601c611ee2620001dc600039806102a152806103f55280610523528061064c528061078152806108345280610aa15280610be85280610c9f525080610212528061042752806104cf52806105cb52806105f852806106fa52806108665280610ad35280610c15525080610244528061045a528061072c52806108995280610a745280610b065280610c475250611ee26000f3fe6080604052600436106100ab5760003560e01c8063b348e26811610064578063b348e26814610177578063c0fa77dd14610197578063c45a0155146101aa578063d50d804b146101bf578063fe861b99146101d2578063ff92b1a8146101e7576100b2565b806302526490146100b75780630d20495c146100d95780633e3cf810146100f95780633e75a9a81461010c5780634f8632ba1461012c578063a4c1225614610157576100b2565b366100b257005b600080fd5b3480156100c357600080fd5b506100d76100d23660046111ac565b610207565b005b3480156100e557600080fd5b506100d76100f436600461112e565b610376565b6100d761010736600461101f565b6103ea565b34801561011857600080fd5b506100d76101273660046110ac565b6104c4565b34801561013857600080fd5b506101416105c9565b60405161014e91906117f0565b60405180910390f35b34801561016357600080fd5b506100d761017236600461126b565b6105ed565b34801561018357600080fd5b506100d76101923660046111ac565b6106ef565b6100d76101a5366004610fe0565b610829565b3480156101b657600080fd5b50610141610a72565b6100d76101cd3660046110ee565b610a96565b3480156101de57600080fd5b50610141610be6565b3480156101f357600080fd5b506100d761020236600461120f565b610c0a565b336001600160a01b037f00000000000000000000000000000000000000000000000000000000000000001614806102665750336001600160a01b037f000000000000000000000000000000000000000000000000000000000000000016145b61028b5760405162461bcd60e51b815260040161028290611ba3565b60405180910390fd5b6040516225264960e41b81526001600160a01b037f000000000000000000000000000000000000000000000000000000000000000016906302526490906102de9088908890889088908890600401611be8565b600060405180830381600087803b1580156102f857600080fd5b505af1925050508015610309575060015b61036f57610315611dcb565b806103205750610357565b806040516020016103319190611731565b60408051601f198184030181529082905262461bcd60e51b825261028291600401611866565b60405162461bcd60e51b815260040161028290611a63565b5050505050565b8281146103955760405162461bcd60e51b815260040161028290611928565b60005b838110156103e2576103da868686848181106103b057fe5b90506020028101906103c29190611cc5565b8585858181106103ce57fe5b90506020020135610c0a565b600101610398565b505050505050565b336001600160a01b037f00000000000000000000000000000000000000000000000000000000000000001614806104495750336001600160a01b037f000000000000000000000000000000000000000000000000000000000000000016145b8061047c5750336001600160a01b037f000000000000000000000000000000000000000000000000000000000000000016145b6104985760405162461bcd60e51b815260040161028290611ae2565b85156104a8576104a88787610829565b82156104bb576104bb85858585856106ef565b50505050505050565b336001600160a01b037f0000000000000000000000000000000000000000000000000000000000000000161461050c5760405162461bcd60e51b815260040161028290611aad565b6040516307ceb53560e31b81526001600160a01b037f00000000000000000000000000000000000000000000000000000000000000001690633e75a9a89061055a9085908590600401611804565b600060405180830381600087803b15801561057457600080fd5b505af1925050508015610585575060015b6105c557610591611dcb565b8061059c57506105ad565b8060405160200161033191906117a1565b60405162461bcd60e51b8152600401610282906119cb565b5050565b7f000000000000000000000000000000000000000000000000000000000000000081565b336001600160a01b037f000000000000000000000000000000000000000000000000000000000000000016146106355760405162461bcd60e51b815260040161028290611aad565b604051635260912b60e11b81526001600160a01b037f0000000000000000000000000000000000000000000000000000000000000000169063a4c1225690610681908490600401611c4d565b600060405180830381600087803b15801561069b57600080fd5b505af19250505080156106ac575060015b6106ec576106b8611dcb565b806106c357506106d4565b8060405160200161033191906116a7565b60405162461bcd60e51b815260040161028290611899565b50565b336001600160a01b037f000000000000000000000000000000000000000000000000000000000000000016148061074e5750336001600160a01b037f000000000000000000000000000000000000000000000000000000000000000016145b61076a5760405162461bcd60e51b815260040161028290611ba3565b6040516316691c4d60e31b81526001600160a01b037f0000000000000000000000000000000000000000000000000000000000000000169063b348e268906107be9088908890889088908890600401611be8565b600060405180830381600087803b1580156107d857600080fd5b505af19250505080156107e9575060015b61036f576107f5611dcb565b806108005750610811565b8060405160200161033191906116ec565b60405162461bcd60e51b8152600401610282906118de565b336001600160a01b037f00000000000000000000000000000000000000000000000000000000000000001614806108885750336001600160a01b037f000000000000000000000000000000000000000000000000000000000000000016145b806108bb5750336001600160a01b037f000000000000000000000000000000000000000000000000000000000000000016145b6108d75760405162461bcd60e51b815260040161028290611ae2565b60005b81811015610a6d5760008383838181106108f057fe5b90506020028101906109029190611ca6565b6109139060608101906040016110d3565b600181111561091e57fe5b14156109ab576109a683838381811061093357fe5b90506020028101906109459190611ca6565b610953906020810190610fbd565b84848481811061095f57fe5b90506020028101906109719190611ca6565b61097f906020810190611c60565b86868681811061098b57fe5b905060200281019061099d9190611ca6565b60800135610d43565b610a65565b60018383838181106109b957fe5b90506020028101906109cb9190611ca6565b6109dc9060608101906040016110d3565b60018111156109e757fe5b1415610a4d576109a68383838181106109fc57fe5b9050602002810190610a0e9190611ca6565b610a1c906020810190610fbd565b848484818110610a2857fe5b9050602002810190610a3a9190611ca6565b610a48906020810190611c60565b610e1a565b60405162461bcd60e51b815260040161028290611b19565b6001016108da565b505050565b7f000000000000000000000000000000000000000000000000000000000000000081565b336001600160a01b037f0000000000000000000000000000000000000000000000000000000000000000161480610af55750336001600160a01b037f000000000000000000000000000000000000000000000000000000000000000016145b80610b285750336001600160a01b037f000000000000000000000000000000000000000000000000000000000000000016145b610b445760405162461bcd60e51b815260040161028290611ae2565b6000610b5660608301604084016110d3565b6001811115610b6157fe5b1415610b8e576106ec610b776020830183610fbd565b610b846020840184611c60565b8460800135610d43565b6001610ba060608301604084016110d3565b6001811115610bab57fe5b1415610bce576106ec610bc16020830183610fbd565b610a486020840184611c60565b60405162461bcd60e51b815260040161028290611a16565b7f000000000000000000000000000000000000000000000000000000000000000081565b336001600160a01b037f0000000000000000000000000000000000000000000000000000000000000000161480610c695750336001600160a01b037f000000000000000000000000000000000000000000000000000000000000000016145b610c855760405162461bcd60e51b815260040161028290611ba3565b6040516001620da9cb60e31b031981526001600160a01b037f0000000000000000000000000000000000000000000000000000000000000000169063ff92b1a890610cd890869086908690600401611c1d565b600060405180830381600087803b158015610cf257600080fd5b505af1925050508015610d03575060015b610a6d57610d0f611dcb565b80610d1a5750610d2b565b806040516020016103319190611769565b60405162461bcd60e51b815260040161028290611986565b836001600160a01b038116610d6a5760405162461bcd60e51b815260040161028290611b6c565b60006060866001600160a01b0316848787604051610d899291906115fe565b60006040518083038185875af1925050503d8060008114610dc6576040519150601f19603f3d011682016040523d82523d6000602084013e610dcb565b606091505b5091509150816104bb5760408051808201909152601c81527f47656c61746f5573657250726f78792e5f63616c6c416374696f6e3a0000000060208201526104bb90829063ffffffff610ed216565b826001600160a01b038116610e415760405162461bcd60e51b815260040161028290611b6c565b60006060856001600160a01b03168585604051610e5f9291906115fe565b600060405180830381855af49150503d8060008114610e9a576040519150601f19603f3d011682016040523d82523d6000602084013e610e9f565b606091505b5091509150816103e2576103e2604051806060016040528060248152602001611e8960249139829063ffffffff610ed216565b6020825181610edd57fe5b0660041415610f2d57602082015162461bcd60e51b6001600160e01b031982161415610f1c57604483019250818360405160200161033192919061160e565b81604051602001610331919061163c565b80604051602001610331919061166f565b8035610f4981611e73565b92915050565b60008083601f840112610f60578182fd5b5081356001600160401b03811115610f76578182fd5b6020830191508360208083028501011115610f9057600080fd5b9250929050565b803560028110610f4957600080fd5b600060408284031215610fb7578081fd5b50919050565b600060208284031215610fce578081fd5b8135610fd981611e73565b9392505050565b60008060208385031215610ff2578081fd5b82356001600160401b03811115611007578182fd5b61101385828601610f4f565b90969095509350505050565b600080600080600080600060c0888a031215611039578283fd5b87356001600160401b038082111561104f578485fd5b61105b8b838c01610f4f565b909950975061106d8b60208c01610fa6565b965060608a0135915080821115611082578485fd5b5061108f8a828b01610f4f565b989b979a50959895979660808701359660a0013595509350505050565b600080602083850312156110be578182fd5b82356001600160401b03811115611007578283fd5b6000602082840312156110e4578081fd5b610fd98383610f97565b6000602082840312156110ff578081fd5b81356001600160401b03811115611114578182fd5b80830160c08186031215611126578283fd5b949350505050565b600080600080600060808688031215611145578081fd5b61114f8787610fa6565b945060408601356001600160401b038082111561116a578283fd5b61117689838a01610f4f565b9096509450606088013591508082111561118e578283fd5b5061119b88828901610f4f565b969995985093965092949392505050565b600080600080600060a086880312156111c3578081fd5b6111cd8787610fa6565b945060408601356001600160401b038111156111e7578182fd5b6111f388828901610f4f565b9699909850959660608101359660809091013595509350505050565b600080600060808486031215611223578283fd5b61122d8585610fa6565b925060408401356001600160401b03811115611247578283fd5b80850160808188031215611259578384fd5b93969395505050506060919091013590565b60006020828403121561127c578081fd5b81356001600160401b03811115611291578182fd5b8083016101208186031215611126578283fd5b600081356112b181611e73565b6001600160a01b031683526112c96020830183611d32565b604060208601526112de604086018284611444565b95945050505050565b6001600160a01b03169052565b818352602080840193600091908185020181018584845b878110156113db578284038952813560be1988360301811261132b578687fd5b60c0908801868101611346876113418385610f3e565b6112e7565b6113508183611d32565b848a8a0152611362858a018284611444565b925050506040925061137683830183611d86565b6113828489018261147c565b506060925061139383830183611d76565b61139f8489018261146e565b506080828101359088015260a092506113ba83830183611d21565b6113c68489018261143e565b509a87019a955050509084019060010161130b565b5091979650505050505050565b818352602080840193600091908185020181018584845b878110156113db5782840389528135607e1988360301811261141f578687fd5b61142b85898301611548565b99860199945050908401906001016113ff565b15159052565b60008284528282602086013780602084860101526020601f19601f85011685010190509392505050565b6004811061147857fe5b9052565b6002811061147857fe5b803561149181611e73565b6001600160a01b0390811683526020820135906114ad82611e73565b808216602085015250505050565b60006101208235845260208301356114d281611e73565b6001600160a01b031660208501526114f06040808601908501611486565b6080830135608085015261150760a0840184611cda565b8260a087015261151a83870182846113e8565b60c086013560c088015260e086013560e0880152610100935083860135848801528094505050505092915050565b6000608083016115588384611cda565b608086529182905260209160a08087019084830288010183865b848110156115b657898303609f19018452813536879003603e19018112611597578889fd5b6115a3848883016112a4565b9488019493505090860190600101611572565b50506115c485880188611cda565b94509250878103858901526115da8185856112f4565b94505050505060408301356040850152606083013560608501528091505092915050565b6000828483379101908152919050565b60008351611620818460208801611d95565b8351908301611633828260208801611d95565b01949350505050565b6000825161164e818460208701611d95565b6e2737a2b93937b929b2b632b1ba37b960891b920191825250600f01919050565b60008251611681818460208701611d95565b73556e657870656374656452657475726e6461746160601b920191825250601401919050565b60007f47656c61746f5573657250726f78792e63616e63656c5461736b3a0000000000825282516116df81601b850160208701611d95565b91909101601b0192915050565b60007f47656c61746f5573657250726f78792e7375626d69745461736b4379636c653a82528251611724816020850160208701611d95565b9190910160200192915050565b60007f47656c61746f5573657250726f78792e7375626d69745461736b436861696e3a82528251611724816020850160208701611d95565b60007f47656c61746f5573657250726f78792e7375626d69745461736b3a0000000000825282516116df81601b850160208701611d95565b60007f47656c61746f5573657250726f78792e6d756c746943616e63656c5461736b738252601d60f91b602083015282516117e3816021850160208701611d95565b9190910160210192915050565b6001600160a01b0391909116815260200190565b602080825281810183905260009060408482028401810190840186845b878110156113db57868403603f190183528135368a900361011e19018112611847578687fd5b611853858b83016114bb565b9450509184019190840190600101611821565b6000602082528251806020840152611885816040850160208701611d95565b601f01601f19169190910160400192915050565b60208082526025908201527f47656c61746f5573657250726f78792e63616e63656c5461736b3a756e6465666040820152641a5b99195960da1b606082015260800190565b6020808252602a908201527f47656c61746f5573657250726f78792e7375626d69745461736b4379636c653a6040820152691d5b9919599a5b99195960b21b606082015260800190565b602080825260409082018190527f47656c61746f5573657250726f78792e6d756c74695375626d69745461736b73908201527f3a2065616368207461736b206e65656473206f776e2065787069727944617465606082015260800190565b60208082526025908201527f47656c61746f5573657250726f78792e7375626d69745461736b3a756e6465666040820152641a5b99195960da1b606082015260800190565b6020808252602b908201527f47656c61746f5573657250726f78792e6d756c746943616e63656c5461736b7360408201526a0e9d5b9919599a5b99195960aa1b606082015260800190565b6020808252602d908201527f47656c61746f5573657250726f78792e65786563416374696f6e3a20696e766160408201526c3634b21037b832b930ba34b7b760991b606082015260800190565b6020808252602a908201527f47656c61746f5573657250726f78792e7375626d69745461736b436861696e3a6040820152691d5b9919599a5b99195960b21b606082015260800190565b6020808252818101527f47656c61746f5573657250726f78792e6f6e6c79557365723a206661696c6564604082015260600190565b6020808252601c908201527f47656c61746f5573657250726f78792e617574683a206661696c656400000000604082015260600190565b60208082526033908201527f47656c61746f5573657250726f78792e6d756c746945786563416374696f6e736040820152721d1034b73b30b634b21037b832b930ba34b7b760691b606082015260800190565b6020808252601d908201527f47656c61746f5573657250726f78792e6e6f5a65726f41646472657373000000604082015260600190565b60208082526025908201527f47656c61746f5573657250726f78792e757365724f72466163746f72793a2066604082015264185a5b195960da1b606082015260800190565b6000611bf48288611486565b60a06040830152611c0960a0830186886113e8565b606083019490945250608001529392505050565b6000611c298286611486565b60806040830152611c3d6080830185611548565b9050826060830152949350505050565b600060208252610fd960208301846114bb565b6000808335601e19843603018112611c76578283fd5b808401803592506001600160401b03831115611c90578384fd5b60200192505036819003821315610f9057600080fd5b6000823560be19833603018112611cbb578182fd5b9190910192915050565b60008235607e19833603018112611cbb578182fd5b6000808335601e19843603018112611cf0578283fd5b83016020810192503590506001600160401b03811115611d0f57600080fd5b602081023603831315610f9057600080fd5b600082358015158114610fd9578182fd5b6000808335601e19843603018112611d48578283fd5b83016020810192503590506001600160401b03811115611d6757600080fd5b803603831315610f9057600080fd5b6000823560048110610fd9578182fd5b6000610fd96020840184610f97565b60005b83811015611db0578181015183820152602001611d98565b83811115611dbf576000848401525b50505050565b60e01c90565b600060443d1015611ddb57611e70565b600481823e6308c379a0611def8251611dc5565b14611df957611e70565b6040513d600319016004823e80513d6001600160401b038160248401118184111715611e285750505050611e70565b82840191508151925080831115611e425750505050611e70565b503d83016020838301011115611e5a57505050611e70565b601f91909101601f191681016020016040529150505b90565b6001600160a01b03811681146106ec57600080fdfe47656c61746f5573657250726f78792e5f64656c656761746563616c6c416374696f6e3aa2646970667358221220f1eb45da3d49a3bc5e24c99b76db3e0bbdc8e2719e8ea43d83c31b6000a86c5d64736f6c634300060a0033",
  "linkReferences": {},
  "deployedLinkReferences": {}
}