{
  "_format": "hh-sol-artifact-1",
  "contractName": "ActionSafeUniswap",
  "sourceName": "contracts/gelato_actions/ActionSafeUniswap.sol",
  "abi": [
    {
      "inputs": [
        {
          "internalType": "address",
          "name": "_uniswapRouter",
          "type": "address"
        },
        {
          "internalType": "address",
          "name": "_tokenConversion",
          "type": "address"
        },
        {
          "internalType": "uint256",
          "name": "_slippageFactor",
          "type": "uint256"
        }
      ],
      "stateMutability": "nonpayable",
      "type": "constructor"
    },
    {
      "anonymous": false,
      "inputs": [
        {
          "indexed": false,
          "internalType": "address",
          "name": "origin",
          "type": "address"
        },
        {
          "indexed": false,
          "internalType": "address",
          "name": "sendToken",
          "type": "address"
        },
        {
          "indexed": false,
          "internalType": "uint256",
          "name": "sendAmount",
          "type": "uint256"
        },
        {
          "indexed": false,
          "internalType": "address",
          "name": "destination",
          "type": "address"
        }
      ],
      "name": "LogOneWay",
      "type": "event"
    },
    {
      "anonymous": false,
      "inputs": [
        {
          "indexed": false,
          "internalType": "address",
          "name": "origin",
          "type": "address"
        },
        {
          "indexed": false,
          "internalType": "address",
          "name": "sendToken",
          "type": "address"
        },
        {
          "indexed": false,
          "internalType": "uint256",
          "name": "sendAmount",
          "type": "uint256"
        },
        {
          "indexed": false,
          "internalType": "address",
          "name": "destination",
          "type": "address"
        },
        {
          "indexed": false,
          "internalType": "address",
          "name": "receiveToken",
          "type": "address"
        },
        {
          "indexed": false,
          "internalType": "uint256",
          "name": "receiveAmount",
          "type": "uint256"
        },
        {
          "indexed": false,
          "internalType": "address",
          "name": "receiver",
          "type": "address"
        }
      ],
      "name": "LogTwoWay",
      "type": "event"
    },
    {
      "inputs": [
        {
          "internalType": "uint256",
          "name": "_amountIn",
          "type": "uint256"
        },
        {
          "internalType": "address[]",
          "name": "_path",
          "type": "address[]"
        },
        {
          "internalType": "address",
          "name": "_receiver",
          "type": "address"
        },
        {
          "internalType": "uint256",
          "name": "_deadline",
          "type": "uint256"
        }
      ],
      "name": "action",
      "outputs": [
        {
          "internalType": "uint256",
          "name": "",
          "type": "uint256"
        }
      ],
      "stateMutability": "nonpayable",
      "type": "function"
    },
    {
      "inputs": [],
      "name": "slippageFactor",
      "outputs": [
        {
          "internalType": "uint256",
          "name": "",
          "type": "uint256"
        }
      ],
      "stateMutability": "view",
      "type": "function"
    },
    {
      "inputs": [
        {
          "internalType": "uint256",
          "name": "",
          "type": "uint256"
        },
        {
          "internalType": "address",
          "name": "",
          "type": "address"
        },
        {
          "internalType": "bytes",
          "name": "",
          "type": "bytes"
        },
        {
          "internalType": "enum DataFlow",
          "name": "",
          "type": "uint8"
        },
        {
          "internalType": "uint256",
          "name": "",
          "type": "uint256"
        },
        {
          "internalType": "uint256",
          "name": "",
          "type": "uint256"
        }
      ],
      "name": "termsOk",
      "outputs": [
        {
          "internalType": "string",
          "name": "",
          "type": "string"
        }
      ],
      "stateMutability": "view",
      "type": "function"
    },
    {
      "inputs": [],
      "name": "thisActionAddress",
      "outputs": [
        {
          "internalType": "address",
          "name": "",
          "type": "address"
        }
      ],
      "stateMutability": "view",
      "type": "function"
    },
    {
      "inputs": [],
      "name": "tokenConversion",
      "outputs": [
        {
          "internalType": "contract TokenConversion",
          "name": "",
          "type": "address"
        }
      ],
      "stateMutability": "view",
      "type": "function"
    },
    {
      "inputs": [],
      "name": "uniswapRouter",
      "outputs": [
        {
          "internalType": "contract IUniswapV2Router02",
          "name": "",
          "type": "address"
        }
      ],
      "stateMutability": "view",
      "type": "function"
    }
  ],
  "bytecode": "0x61010060405234801561001157600080fd5b506040516108613803806108618339818101604052606081101561003457600080fd5b508051602082015160409092015130606081811b60805260a08390526001600160601b031984821b811660c0529085901b1660e0529290916001600160a01b0390811691166107ab6100b660003980610278528061042752508061058552806106e752508061048452806107535250806102de528061070b52506107ab6000f3fe608060405234801561001057600080fd5b50600436106100625760003560e01c806314a3b6131461006757806340c02edb1461008b578063735de9f7146101555780637b9b93481461015d578063eb9e712614610165578063ffbd3b1f1461026e575b600080fd5b61006f610276565b604080516001600160a01b039092168252519081900360200190f35b610143600480360360808110156100a157600080fd5b813591908101906040810160208201356401000000008111156100c357600080fd5b8201836020820111156100d557600080fd5b803590602001918460208302840111640100000000831117156100f757600080fd5b919080806020026020016040519081016040528093929190818152602001838360200280828437600092019190915250929550506001600160a01b03833516935050506020013561029a565b60408051918252519081900360200190f35b61006f6106e5565b61006f610709565b6101f9600480360360c081101561017b57600080fd5b8135916001600160a01b03602082013516918101906060810160408201356401000000008111156101ab57600080fd5b8201836020820111156101bd57600080fd5b803590602001918460018302840111640100000000831117156101df57600080fd5b919350915060ff813516906020810135906040013561072d565b6040805160208082528351818301528351919283929083019185019080838360005b8381101561023357818101518382015260200161021b565b50505050905090810190601f1680156102605780820380516001836020036101000a031916815260200191505b509250505060405180910390f35b610143610751565b7f000000000000000000000000000000000000000000000000000000000000000081565b60006040518060400160405280601881526020017f416374696f6e53616665556e69737761702e616374696f6e0000000000000000815250306001600160a01b03167f00000000000000000000000000000000000000000000000000000000000000006001600160a01b03161415816040516020018082805190602001908083835b6020831061033b5780518252601f19909201916020918201910161031c565b6001836020036101000a03801982511681845116808217855250505050505090500180703a64656c656761746563616c6c4f6e6c7960781b815250601101915050604051602081830303815290604052906104145760405162461bcd60e51b81526004018080602001828103825283818151815260200191508051906020019080838360005b838110156103d95781810151838201526020016103c1565b50505050905090810190601f1680156104065780820380516001836020036101000a031916815260200191505b509250505060405180910390fd5b50600185511161042357600080fd5b60007f00000000000000000000000000000000000000000000000000000000000000006001600160a01b031663b0e9473b888860008151811061046257fe5b60200260200101518960018b51038151811061047a57fe5b60200260200101517f00000000000000000000000000000000000000000000000000000000000000006040518563ffffffff1660e01b815260040180858152602001846001600160a01b03166001600160a01b03168152602001836001600160a01b03166001600160a01b0316815260200182815260200194505050505060206040518083038186803b15801561051057600080fd5b505afa158015610524573d6000803e3d6000fd5b505050506040513d602081101561053a57600080fd5b50516040516338ed173960e01b815260048101898152602482018390526001600160a01b0388811660648401526084830188905260a0604484019081528a5160a48501528a519495507f0000000000000000000000000000000000000000000000000000000000000000909116936338ed1739938c9387938d938d938d93929160c4909101906020878101910280838360005b838110156105e55781810151838201526020016105cd565b505050509050019650505050505050600060405180830381600087803b15801561060e57600080fd5b505af1158015610622573d6000803e3d6000fd5b505050506040513d6000823e601f3d908101601f19168201604052602081101561064b57600080fd5b810190808051604051939291908464010000000082111561066b57600080fd5b90830190602082018581111561068057600080fd5b825186602082028301116401000000008211171561069d57600080fd5b82525081516020918201928201910280838360005b838110156106ca5781810151838201526020016106b2565b50505050905001604052505050508092505050949350505050565b7f000000000000000000000000000000000000000000000000000000000000000081565b7f000000000000000000000000000000000000000000000000000000000000000081565b6040805180820190915260028152614f4b60f01b6020820152979650505050505050565b7f00000000000000000000000000000000000000000000000000000000000000008156fea2646970667358221220ed89fa8617613ca3de49f0f197e2689656c96c6d6c568f4edc2f63d94ccd2ecf64736f6c634300060a0033",
  "linkReferences": {},
  "deployedLinkReferences": {}
}